{
  "contractName": "CarbonFootprintTracker",
  "abi": [
    {
      "anonymous": false,
      "inputs": [
        {
          "indexed": true,
          "internalType": "address",
          "name": "user",
          "type": "address"
        },
        {
          "indexed": false,
          "internalType": "uint256",
          "name": "credits",
          "type": "uint256"
        }
      ],
      "name": "CreditsAdded",
      "type": "event"
    },
    {
      "anonymous": false,
      "inputs": [
        {
          "indexed": true,
          "internalType": "address",
          "name": "user",
          "type": "address"
        },
        {
          "indexed": false,
          "internalType": "uint256",
          "name": "footprint",
          "type": "uint256"
        }
      ],
      "name": "FootprintAdded",
      "type": "event"
    },
    {
      "anonymous": false,
      "inputs": [
        {
          "indexed": true,
          "internalType": "address",
          "name": "user",
          "type": "address"
        },
        {
          "indexed": false,
          "internalType": "string",
          "name": "name",
          "type": "string"
        }
      ],
      "name": "UserRegistered",
      "type": "event"
    },
    {
      "inputs": [
        {
          "internalType": "address",
          "name": "",
          "type": "address"
        }
      ],
      "name": "users",
      "outputs": [
        {
          "internalType": "string",
          "name": "name",
          "type": "string"
        },
        {
          "internalType": "uint256",
          "name": "totalFootprint",
          "type": "uint256"
        },
        {
          "internalType": "uint256",
          "name": "totalCredits",
          "type": "uint256"
        },
        {
          "internalType": "bool",
          "name": "isRegistered",
          "type": "bool"
        }
      ],
      "stateMutability": "view",
      "type": "function"
    },
    {
      "inputs": [
        {
          "internalType": "string",
          "name": "_name",
          "type": "string"
        }
      ],
      "name": "registerUser",
      "outputs": [],
      "stateMutability": "nonpayable",
      "type": "function"
    },
    {
      "inputs": [
        {
          "internalType": "uint256",
          "name": "_amount",
          "type": "uint256"
        }
      ],
      "name": "addCarbonFootprint",
      "outputs": [],
      "stateMutability": "nonpayable",
      "type": "function"
    },
    {
      "inputs": [
        {
          "internalType": "uint256",
          "name": "_credits",
          "type": "uint256"
        }
      ],
      "name": "addCarbonCredits",
      "outputs": [],
      "stateMutability": "nonpayable",
      "type": "function"
    },
    {
      "inputs": [
        {
          "internalType": "address",
          "name": "_user",
          "type": "address"
        }
      ],
      "name": "getUserInfo",
      "outputs": [
        {
          "internalType": "string",
          "name": "",
          "type": "string"
        },
        {
          "internalType": "uint256",
          "name": "",
          "type": "uint256"
        },
        {
          "internalType": "uint256",
          "name": "",
          "type": "uint256"
        }
      ],
      "stateMutability": "view",
      "type": "function"
    }
  ],
  "bytecode": "0x608060405234801561001057600080fd5b50610e3f806100206000396000f3fe608060405234801561001057600080fd5b50600436106100575760003560e01c80636386c1c71461005c5780636e8b36551461008e578063704f1b94146100aa5780639b915d45146100c6578063a87430ba146100e2575b600080fd5b610076600480360381019061007191906108b3565b610115565b60405161008593929190610992565b60405180910390f35b6100a860048036038101906100a391906109fc565b6102d3565b005b6100c460048036038101906100bf9190610b5e565b61040a565b005b6100e060048036038101906100db91906109fc565b6105a2565b005b6100fc60048036038101906100f791906108b3565b6106d9565b60405161010c9493929190610bc2565b60405180910390f35b60606000806000808573ffffffffffffffffffffffffffffffffffffffff1673ffffffffffffffffffffffffffffffffffffffff16815260200190815260200160002060030160009054906101000a900460ff166101a8576040517f08c379a000000000000000000000000000000000000000000000000000000000815260040161019f90610c5a565b60405180910390fd5b60008060008673ffffffffffffffffffffffffffffffffffffffff1673ffffffffffffffffffffffffffffffffffffffff16815260200190815260200160002060405180608001604052908160008201805461020390610ca9565b80601f016020809104026020016040519081016040528092919081815260200182805461022f90610ca9565b801561027c5780601f106102515761010080835404028352916020019161027c565b820191906000526020600020905b81548152906001019060200180831161025f57829003601f168201915b5050505050815260200160018201548152602001600282015481526020016003820160009054906101000a900460ff1615151515815250509050806000015181602001518260400151935093509350509193909250565b6000803373ffffffffffffffffffffffffffffffffffffffff1673ffffffffffffffffffffffffffffffffffffffff16815260200190815260200160002060030160009054906101000a900460ff16610361576040517f08c379a000000000000000000000000000000000000000000000000000000000815260040161035890610c5a565b60405180910390fd5b806000803373ffffffffffffffffffffffffffffffffffffffff1673ffffffffffffffffffffffffffffffffffffffff16815260200190815260200160002060020160008282546103b29190610d0a565b925050819055503373ffffffffffffffffffffffffffffffffffffffff167fed46984c46e11f42ec323727ba7d99dc16be2d248a8aaa8982d492688497f09d826040516103ff9190610d60565b60405180910390a250565b6000803373ffffffffffffffffffffffffffffffffffffffff1673ffffffffffffffffffffffffffffffffffffffff16815260200190815260200160002060030160009054906101000a900460ff1615610499576040517f08c379a000000000000000000000000000000000000000000000000000000000815260040161049090610dc7565b60405180910390fd5b60405180608001604052808281526020016000815260200160008152602001600115158152506000803373ffffffffffffffffffffffffffffffffffffffff1673ffffffffffffffffffffffffffffffffffffffff168152602001908152602001600020600082015181600001908051906020019061051992919061079e565b50602082015181600101556040820151816002015560608201518160030160006101000a81548160ff0219169083151502179055509050503373ffffffffffffffffffffffffffffffffffffffff167f48cac28ad4dc618e15f4c2dd5e97751182f166de97b25618318b2112aa951a2f826040516105979190610de7565b60405180910390a250565b6000803373ffffffffffffffffffffffffffffffffffffffff1673ffffffffffffffffffffffffffffffffffffffff16815260200190815260200160002060030160009054906101000a900460ff16610630576040517f08c379a000000000000000000000000000000000000000000000000000000000815260040161062790610c5a565b60405180910390fd5b806000803373ffffffffffffffffffffffffffffffffffffffff1673ffffffffffffffffffffffffffffffffffffffff16815260200190815260200160002060010160008282546106819190610d0a565b925050819055503373ffffffffffffffffffffffffffffffffffffffff167f7cd19044f4ed751d49fc66d46bbbecc0f71305da2bfb8330c673a90f59119b6c826040516106ce9190610d60565b60405180910390a250565b60006020528060005260406000206000915090508060000180546106fc90610ca9565b80601f016020809104026020016040519081016040528092919081815260200182805461072890610ca9565b80156107755780601f1061074a57610100808354040283529160200191610775565b820191906000526020600020905b81548152906001019060200180831161075857829003601f168201915b5050505050908060010154908060020154908060030160009054906101000a900460ff16905084565b8280546107aa90610ca9565b90600052602060002090601f0160209004810192826107cc5760008555610813565b82601f106107e557805160ff1916838001178555610813565b82800160010185558215610813579182015b828111156108125782518255916020019190600101906107f7565b5b5090506108209190610824565b5090565b5b8082111561083d576000816000905550600101610825565b5090565b6000604051905090565b600080fd5b600080fd5b600073ffffffffffffffffffffffffffffffffffffffff82169050919050565b600061088082610855565b9050919050565b61089081610875565b811461089b57600080fd5b50565b6000813590506108ad81610887565b92915050565b6000602082840312156108c9576108c861084b565b5b60006108d78482850161089e565b91505092915050565b600081519050919050565b600082825260208201905092915050565b60005b8381101561091a5780820151818401526020810190506108ff565b83811115610929576000848401525b50505050565b6000601f19601f8301169050919050565b600061094b826108e0565b61095581856108eb565b93506109658185602086016108fc565b61096e8161092f565b840191505092915050565b6000819050919050565b61098c81610979565b82525050565b600060608201905081810360008301526109ac8186610940565b90506109bb6020830185610983565b6109c86040830184610983565b949350505050565b6109d981610979565b81146109e457600080fd5b50565b6000813590506109f6816109d0565b92915050565b600060208284031215610a1257610a1161084b565b5b6000610a20848285016109e7565b91505092915050565b600080fd5b600080fd5b7f4e487b7100000000000000000000000000000000000000000000000000000000600052604160045260246000fd5b610a6b8261092f565b810181811067ffffffffffffffff82111715610a8a57610a89610a33565b5b80604052505050565b6000610a9d610841565b9050610aa98282610a62565b919050565b600067ffffffffffffffff821115610ac957610ac8610a33565b5b610ad28261092f565b9050602081019050919050565b82818337600083830152505050565b6000610b01610afc84610aae565b610a93565b905082815260208101848484011115610b1d57610b1c610a2e565b5b610b28848285610adf565b509392505050565b600082601f830112610b4557610b44610a29565b5b8135610b55848260208601610aee565b91505092915050565b600060208284031215610b7457610b7361084b565b5b600082013567ffffffffffffffff811115610b9257610b91610850565b5b610b9e84828501610b30565b91505092915050565b60008115159050919050565b610bbc81610ba7565b82525050565b60006080820190508181036000830152610bdc8187610940565b9050610beb6020830186610983565b610bf86040830185610983565b610c056060830184610bb3565b95945050505050565b7f55736572206e6f74207265676973746572656400000000000000000000000000600082015250565b6000610c446013836108eb565b9150610c4f82610c0e565b602082019050919050565b60006020820190508181036000830152610c7381610c37565b9050919050565b7f4e487b7100000000000000000000000000000000000000000000000000000000600052602260045260246000fd5b60006002820490506001821680610cc157607f821691505b60208210811415610cd557610cd4610c7a565b5b50919050565b7f4e487b7100000000000000000000000000000000000000000000000000000000600052601160045260246000fd5b6000610d1582610979565b9150610d2083610979565b9250827fffffffffffffffffffffffffffffffffffffffffffffffffffffffffffffffff03821115610d5557610d54610cdb565b5b828201905092915050565b6000602082019050610d756000830184610983565b92915050565b7f5573657220616c72656164792072656769737465726564000000000000000000600082015250565b6000610db16017836108eb565b9150610dbc82610d7b565b602082019050919050565b60006020820190508181036000830152610de081610da4565b9050919050565b60006020820190508181036000830152610e018184610940565b90509291505056fea26469706673582212202249af4c1227d29d6ed60218498c0cea3589401e173023ca5cb7c1dddeac5cdc64736f6c63430008090033",
  "immutableReferences": {},
  "source": "// SPDX-License-Identifier: MIT\npragma solidity ^0.8.9;\n\ncontract CarbonFootprintTracker {\n    struct User {\n        string name;\n        uint256 totalFootprint;\n        uint256 totalCredits;\n        bool isRegistered;\n    }\n\n    mapping(address => User) public users;\n\n    event UserRegistered(address indexed user, string name);\n    event FootprintAdded(address indexed user, uint256 footprint);\n    event CreditsAdded(address indexed user, uint256 credits);\n\n    // Register a user with their name\n    function registerUser(string memory _name) public {\n        require(!users[msg.sender].isRegistered, \"User already registered\");\n        users[msg.sender] = User(_name, 0, 0, true);\n        emit UserRegistered(msg.sender, _name);\n    }\n\n    // Add carbon footprint to the user's total footprint\n    function addCarbonFootprint(uint256 _amount) public {\n        require(users[msg.sender].isRegistered, \"User not registered\");\n        users[msg.sender].totalFootprint += _amount;\n        emit FootprintAdded(msg.sender, _amount);\n    }\n\n    // Add carbon credits to the user's total credits\n    function addCarbonCredits(uint256 _credits) public {\n        require(users[msg.sender].isRegistered, \"User not registered\");\n        users[msg.sender].totalCredits += _credits;\n        emit CreditsAdded(msg.sender, _credits);\n    }\n\n    // Get user information\n    function getUserInfo(address _user) public view returns (string memory, uint256, uint256) {\n        require(users[_user].isRegistered, \"User not registered\");\n        User memory user = users[_user];\n        return (user.name, user.totalFootprint, user.totalCredits);\n    }\n}\n",
  "sourcePath": "/Users/mani/Projects/projfinal/contracts/CarbonFootprintTracker.sol",
  "compiler": {
    "name": "solc",
    "version": "0.8.9+commit.e5eed63a.Emscripten.clang"
  },
  "schemaVersion": "3.4.16",
  "updatedAt": "2024-11-15T05:43:26.135Z",
  "devdoc": {
    "kind": "dev",
    "methods": {},
    "version": 1
  },
  "userdoc": {
    "kind": "user",
    "methods": {},
    "version": 1
  }
}